<!DOCTYPE html><html lang="en"><head><meta charset="utf-8"><meta name="viewport" content="width=device-width, initial-scale=1.0"><meta name="generator" content="rustdoc"><meta name="description" content="Source of the Rust file `src/chain-libs/chain-evm/src/util.rs`."><meta name="keywords" content="rust, rustlang, rust-lang"><title>util.rs - source</title><link rel="preload" as="font" type="font/woff2" crossorigin href="../../SourceSerif4-Regular.ttf.woff2"><link rel="preload" as="font" type="font/woff2" crossorigin href="../../FiraSans-Regular.woff2"><link rel="preload" as="font" type="font/woff2" crossorigin href="../../FiraSans-Medium.woff2"><link rel="preload" as="font" type="font/woff2" crossorigin href="../../SourceCodePro-Regular.ttf.woff2"><link rel="preload" as="font" type="font/woff2" crossorigin href="../../SourceSerif4-Bold.ttf.woff2"><link rel="preload" as="font" type="font/woff2" crossorigin href="../../SourceCodePro-Semibold.ttf.woff2"><link rel="stylesheet" href="../../normalize.css"><link rel="stylesheet" href="../../rustdoc.css" id="mainThemeStyle"><link rel="stylesheet" href="../../ayu.css" disabled><link rel="stylesheet" href="../../dark.css" disabled><link rel="stylesheet" href="../../light.css" id="themeStyle"><script id="default-settings" ></script><script src="../../storage.js"></script><script defer src="../../source-script.js"></script><script defer src="../../source-files.js"></script><script defer src="../../main.js"></script><noscript><link rel="stylesheet" href="../../noscript.css"></noscript><link rel="alternate icon" type="image/png" href="../../favicon-16x16.png"><link rel="alternate icon" type="image/png" href="../../favicon-32x32.png"><link rel="icon" type="image/svg+xml" href="../../favicon.svg"></head><body class="rustdoc source"><!--[if lte IE 11]><div class="warning">This old browser is unsupported and will most likely display funky things.</div><![endif]--><nav class="mobile-topbar"><button class="sidebar-menu-toggle">&#9776;</button><a class="sidebar-logo" href="../../chain_evm/index.html"><div class="logo-container"><img class="rust-logo" src="../../rust-logo.svg" alt="logo"></div></a><h2 class="location"></h2></nav><nav class="sidebar"><a class="sidebar-logo" href="../../chain_evm/index.html"><div class="logo-container"><img class="rust-logo" src="../../rust-logo.svg" alt="logo"></div></a></nav><main><div class="width-limiter"><div class="sub-container"><a class="sub-logo-container" href="../../chain_evm/index.html"><img class="rust-logo" src="../../rust-logo.svg" alt="logo"></a><nav class="sub"><form class="search-form"><div class="search-container"><span></span><input class="search-input" name="search" autocomplete="off" spellcheck="false" placeholder="Click or press ‘S’ to search, ‘?’ for more options…" type="search"><div id="help-button" title="help" tabindex="-1"><button type="button">?</button></div><div id="settings-menu" tabindex="-1"><a href="../../settings.html" title="settings"><img width="22" height="22" alt="Change settings" src="../../wheel.svg"></a></div></div></form></nav></div><section id="main-content" class="content"><div class="example-wrap"><pre class="line-numbers"><span id="1">1</span>
<span id="2">2</span>
<span id="3">3</span>
<span id="4">4</span>
<span id="5">5</span>
<span id="6">6</span>
<span id="7">7</span>
<span id="8">8</span>
<span id="9">9</span>
<span id="10">10</span>
<span id="11">11</span>
<span id="12">12</span>
<span id="13">13</span>
<span id="14">14</span>
<span id="15">15</span>
<span id="16">16</span>
<span id="17">17</span>
<span id="18">18</span>
<span id="19">19</span>
<span id="20">20</span>
<span id="21">21</span>
<span id="22">22</span>
<span id="23">23</span>
<span id="24">24</span>
<span id="25">25</span>
<span id="26">26</span>
<span id="27">27</span>
<span id="28">28</span>
<span id="29">29</span>
<span id="30">30</span>
<span id="31">31</span>
<span id="32">32</span>
<span id="33">33</span>
<span id="34">34</span>
<span id="35">35</span>
<span id="36">36</span>
<span id="37">37</span>
<span id="38">38</span>
<span id="39">39</span>
<span id="40">40</span>
<span id="41">41</span>
<span id="42">42</span>
<span id="43">43</span>
<span id="44">44</span>
<span id="45">45</span>
<span id="46">46</span>
<span id="47">47</span>
<span id="48">48</span>
<span id="49">49</span>
<span id="50">50</span>
<span id="51">51</span>
<span id="52">52</span>
<span id="53">53</span>
<span id="54">54</span>
<span id="55">55</span>
<span id="56">56</span>
<span id="57">57</span>
<span id="58">58</span>
<span id="59">59</span>
<span id="60">60</span>
<span id="61">61</span>
<span id="62">62</span>
<span id="63">63</span>
<span id="64">64</span>
<span id="65">65</span>
<span id="66">66</span>
<span id="67">67</span>
<span id="68">68</span>
<span id="69">69</span>
<span id="70">70</span>
<span id="71">71</span>
<span id="72">72</span>
<span id="73">73</span>
<span id="74">74</span>
<span id="75">75</span>
<span id="76">76</span>
<span id="77">77</span>
<span id="78">78</span>
<span id="79">79</span>
<span id="80">80</span>
<span id="81">81</span>
<span id="82">82</span>
<span id="83">83</span>
<span id="84">84</span>
<span id="85">85</span>
<span id="86">86</span>
<span id="87">87</span>
<span id="88">88</span>
<span id="89">89</span>
<span id="90">90</span>
<span id="91">91</span>
<span id="92">92</span>
<span id="93">93</span>
<span id="94">94</span>
<span id="95">95</span>
<span id="96">96</span>
<span id="97">97</span>
<span id="98">98</span>
<span id="99">99</span>
<span id="100">100</span>
<span id="101">101</span>
<span id="102">102</span>
<span id="103">103</span>
<span id="104">104</span>
<span id="105">105</span>
<span id="106">106</span>
<span id="107">107</span>
<span id="108">108</span>
<span id="109">109</span>
<span id="110">110</span>
<span id="111">111</span>
<span id="112">112</span>
<span id="113">113</span>
<span id="114">114</span>
<span id="115">115</span>
<span id="116">116</span>
<span id="117">117</span>
<span id="118">118</span>
<span id="119">119</span>
<span id="120">120</span>
<span id="121">121</span>
<span id="122">122</span>
<span id="123">123</span>
<span id="124">124</span>
<span id="125">125</span>
<span id="126">126</span>
<span id="127">127</span>
<span id="128">128</span>
<span id="129">129</span>
<span id="130">130</span>
<span id="131">131</span>
<span id="132">132</span>
<span id="133">133</span>
<span id="134">134</span>
<span id="135">135</span>
<span id="136">136</span>
<span id="137">137</span>
<span id="138">138</span>
<span id="139">139</span>
<span id="140">140</span>
<span id="141">141</span>
<span id="142">142</span>
<span id="143">143</span>
<span id="144">144</span>
<span id="145">145</span>
<span id="146">146</span>
<span id="147">147</span>
<span id="148">148</span>
<span id="149">149</span>
<span id="150">150</span>
<span id="151">151</span>
<span id="152">152</span>
<span id="153">153</span>
<span id="154">154</span>
<span id="155">155</span>
<span id="156">156</span>
<span id="157">157</span>
<span id="158">158</span>
<span id="159">159</span>
<span id="160">160</span>
<span id="161">161</span>
<span id="162">162</span>
<span id="163">163</span>
<span id="164">164</span>
<span id="165">165</span>
<span id="166">166</span>
<span id="167">167</span>
<span id="168">168</span>
<span id="169">169</span>
<span id="170">170</span>
<span id="171">171</span>
<span id="172">172</span>
<span id="173">173</span>
<span id="174">174</span>
<span id="175">175</span>
<span id="176">176</span>
<span id="177">177</span>
<span id="178">178</span>
<span id="179">179</span>
<span id="180">180</span>
<span id="181">181</span>
<span id="182">182</span>
<span id="183">183</span>
<span id="184">184</span>
<span id="185">185</span>
<span id="186">186</span>
<span id="187">187</span>
<span id="188">188</span>
<span id="189">189</span>
<span id="190">190</span>
<span id="191">191</span>
<span id="192">192</span>
<span id="193">193</span>
<span id="194">194</span>
<span id="195">195</span>
<span id="196">196</span>
<span id="197">197</span>
<span id="198">198</span>
<span id="199">199</span>
<span id="200">200</span>
<span id="201">201</span>
<span id="202">202</span>
<span id="203">203</span>
<span id="204">204</span>
<span id="205">205</span>
<span id="206">206</span>
<span id="207">207</span>
<span id="208">208</span>
<span id="209">209</span>
<span id="210">210</span>
<span id="211">211</span>
<span id="212">212</span>
<span id="213">213</span>
<span id="214">214</span>
<span id="215">215</span>
<span id="216">216</span>
<span id="217">217</span>
<span id="218">218</span>
<span id="219">219</span>
<span id="220">220</span>
<span id="221">221</span>
<span id="222">222</span>
<span id="223">223</span>
<span id="224">224</span>
<span id="225">225</span>
<span id="226">226</span>
<span id="227">227</span>
<span id="228">228</span>
<span id="229">229</span>
<span id="230">230</span>
<span id="231">231</span>
<span id="232">232</span>
<span id="233">233</span>
<span id="234">234</span>
<span id="235">235</span>
<span id="236">236</span>
<span id="237">237</span>
<span id="238">238</span>
<span id="239">239</span>
<span id="240">240</span>
<span id="241">241</span>
<span id="242">242</span>
<span id="243">243</span>
<span id="244">244</span>
<span id="245">245</span>
<span id="246">246</span>
<span id="247">247</span>
<span id="248">248</span>
<span id="249">249</span>
<span id="250">250</span>
<span id="251">251</span>
<span id="252">252</span>
<span id="253">253</span>
<span id="254">254</span>
<span id="255">255</span>
<span id="256">256</span>
<span id="257">257</span>
<span id="258">258</span>
<span id="259">259</span>
<span id="260">260</span>
<span id="261">261</span>
<span id="262">262</span>
<span id="263">263</span>
<span id="264">264</span>
<span id="265">265</span>
<span id="266">266</span>
<span id="267">267</span>
<span id="268">268</span>
<span id="269">269</span>
<span id="270">270</span>
<span id="271">271</span>
<span id="272">272</span>
<span id="273">273</span>
<span id="274">274</span>
<span id="275">275</span>
<span id="276">276</span>
<span id="277">277</span>
<span id="278">278</span>
<span id="279">279</span>
<span id="280">280</span>
<span id="281">281</span>
<span id="282">282</span>
<span id="283">283</span>
<span id="284">284</span>
<span id="285">285</span>
<span id="286">286</span>
<span id="287">287</span>
<span id="288">288</span>
<span id="289">289</span>
<span id="290">290</span>
<span id="291">291</span>
<span id="292">292</span>
<span id="293">293</span>
<span id="294">294</span>
<span id="295">295</span>
<span id="296">296</span>
<span id="297">297</span>
<span id="298">298</span>
<span id="299">299</span>
<span id="300">300</span>
<span id="301">301</span>
<span id="302">302</span>
<span id="303">303</span>
<span id="304">304</span>
<span id="305">305</span>
<span id="306">306</span>
<span id="307">307</span>
<span id="308">308</span>
<span id="309">309</span>
<span id="310">310</span>
<span id="311">311</span>
<span id="312">312</span>
<span id="313">313</span>
<span id="314">314</span>
<span id="315">315</span>
<span id="316">316</span>
<span id="317">317</span>
<span id="318">318</span>
<span id="319">319</span>
<span id="320">320</span>
<span id="321">321</span>
<span id="322">322</span>
<span id="323">323</span>
<span id="324">324</span>
<span id="325">325</span>
<span id="326">326</span>
<span id="327">327</span>
<span id="328">328</span>
<span id="329">329</span>
<span id="330">330</span>
<span id="331">331</span>
<span id="332">332</span>
<span id="333">333</span>
<span id="334">334</span>
<span id="335">335</span>
<span id="336">336</span>
<span id="337">337</span>
<span id="338">338</span>
<span id="339">339</span>
<span id="340">340</span>
<span id="341">341</span>
<span id="342">342</span>
<span id="343">343</span>
<span id="344">344</span>
<span id="345">345</span>
<span id="346">346</span>
<span id="347">347</span>
<span id="348">348</span>
<span id="349">349</span>
<span id="350">350</span>
<span id="351">351</span>
<span id="352">352</span>
<span id="353">353</span>
</pre><pre class="rust"><code><span class="kw">use crate</span>::{
    transaction::{EthereumSignedTransaction, EthereumUnsignedTransaction},
    Address,
};
<span class="kw">use </span>ethereum_types::H256;
<span class="kw">use </span>secp256k1::{
    ecdsa::RecoverableSignature, rand::rngs::ThreadRng, KeyPair, Message, PublicKey, Secp256k1,
    SecretKey,
};
<span class="kw">use </span>sha3::{Digest, Keccak256};

<span class="doccomment">/// Generate new SECP256K1 keypair.
</span><span class="kw">pub fn </span>generate_keypair() -&gt; KeyPair {
    <span class="kw">let </span>secp = Secp256k1::new();
    <span class="kw">let </span><span class="kw-2">mut </span>rng = ThreadRng::default();
    KeyPair::new(<span class="kw-2">&amp;</span>secp, <span class="kw-2">&amp;mut </span>rng)
}

<span class="doccomment">/// A secret key for an Ethereum account.
</span><span class="kw">pub struct </span>Secret(SecretKey);

<span class="kw">impl </span>Secret {
    <span class="kw">pub fn </span>from_hash(data: <span class="kw-2">&amp;</span>H256) -&gt; <span class="self">Self </span>{
        <span class="self">Self</span>(SecretKey::from_slice(data.as_fixed_bytes()).unwrap())
    }

    <span class="kw">pub fn </span>from_slice(data: <span class="kw-2">&amp;</span>[u8]) -&gt; <span class="prelude-ty">Result</span>&lt;<span class="self">Self</span>, secp256k1::Error&gt; {
        <span class="prelude-val">Ok</span>(<span class="self">Self</span>(SecretKey::from_slice(data)<span class="question-mark">?</span>))
    }

    <span class="kw">pub fn </span>seckey(<span class="kw-2">&amp;</span><span class="self">self</span>) -&gt; <span class="kw-2">&amp;</span>SecretKey {
        <span class="kw-2">&amp;</span><span class="self">self</span>.<span class="number">0
    </span>}

    <span class="kw">pub fn </span>secret_hash(<span class="kw-2">&amp;</span><span class="self">self</span>) -&gt; H256 {
        H256::from_slice(<span class="kw-2">&amp;</span><span class="self">self</span>.<span class="number">0</span>.secret_bytes())
    }

    <span class="kw">pub fn </span>address(<span class="kw-2">&amp;</span><span class="self">self</span>) -&gt; Address {
        <span class="kw">let </span>pubkey_bytes = PublicKey::from_secret_key_global(<span class="kw-2">&amp;</span><span class="self">self</span>.<span class="number">0</span>).serialize_uncompressed();
        Address::from_slice(<span class="kw-2">&amp;</span>Keccak256::digest(<span class="kw-2">&amp;</span>pubkey_bytes[<span class="number">1</span>..]).as_slice()[<span class="number">12</span>..])
    }
    <span class="kw">pub fn </span>sign(
        <span class="kw-2">&amp;</span><span class="self">self</span>,
        tx: EthereumUnsignedTransaction,
    ) -&gt; <span class="prelude-ty">Result</span>&lt;EthereumSignedTransaction, secp256k1::Error&gt; {
        tx.sign(<span class="self">self</span>)
    }
}

<span class="kw">impl </span>From&lt;<span class="kw-2">&amp;</span>KeyPair&gt; <span class="kw">for </span>Secret {
    <span class="kw">fn </span>from(other: <span class="kw-2">&amp;</span>KeyPair) -&gt; <span class="self">Self </span>{
        Secret(SecretKey::from_keypair(other))
    }
}

<span class="doccomment">/// Generate a secret key for an Ethereum account from the global context.
</span><span class="kw">pub fn </span>generate_account_secret() -&gt; Secret {
    <span class="kw">let </span>keypair = generate_keypair();
    Secret::from(<span class="kw-2">&amp;</span>keypair)
}

<span class="doccomment">/// Sign raw data bytes with a secret key.
</span><span class="kw">pub fn </span>sign_data(data: <span class="kw-2">&amp;</span>[u8], secret: <span class="kw-2">&amp;</span>Secret) -&gt; <span class="prelude-ty">Result</span>&lt;RecoverableSignature, secp256k1::Error&gt; {
    <span class="kw">let </span>s = Secp256k1::new();
    <span class="kw">let </span>h = Message::from_slice(data)<span class="question-mark">?</span>;
    <span class="kw">let </span>secret = secret.seckey();
    <span class="prelude-val">Ok</span>(s.sign_ecdsa_recoverable(<span class="kw-2">&amp;</span>h, secret))
}

<span class="doccomment">/// Sign a given hash of data with a secret key.
</span><span class="kw">pub fn </span>sign_data_hash(
    tx_hash: <span class="kw-2">&amp;</span>H256,
    secret: <span class="kw-2">&amp;</span>Secret,
) -&gt; <span class="prelude-ty">Result</span>&lt;RecoverableSignature, secp256k1::Error&gt; {
    <span class="kw">let </span>s = Secp256k1::new();
    <span class="kw">let </span>h = Message::from_slice(tx_hash.as_fixed_bytes())<span class="question-mark">?</span>;
    <span class="kw">let </span>secret = secret.seckey();
    <span class="prelude-val">Ok</span>(s.sign_ecdsa_recoverable(<span class="kw-2">&amp;</span>h, secret))
}

<span class="attribute">#[cfg(test)]
</span><span class="kw">mod </span>tests {
    <span class="kw">use super</span>::<span class="kw-2">*</span>;
    <span class="kw">use </span>ethereum::{
        AccessListItem, EIP1559Transaction, EIP2930Transaction, LegacyTransaction,
        LegacyTransactionMessage, TransactionAction, TransactionSignature, TransactionV2,
    };
    <span class="kw">use </span>ethereum_types::{H160, U256};
    <span class="kw">use </span>secp256k1::PublicKey;
    <span class="kw">use </span>std::str::FromStr;

    <span class="comment">// chain-id&#39;s listed in https://eips.ethereum.org/EIPS/eip-155
    </span><span class="kw">const </span>TEST_CHAIN_ID: u64 = <span class="number">1</span>;

    <span class="attribute">#[test]
    </span><span class="kw">fn </span>can_decode_raw_transaction() {
        <span class="kw">let </span>bytes = hex::decode(<span class="string">&quot;f901e48080831000008080b90196608060405234801561001057600080fd5b50336000806101000a81548173ffffffffffffffffffffffffffffffffffffffff021916908373ffffffffffffffffffffffffffffffffffffffff1602179055507fc68045c3c562488255b55aa2c4c7849de001859ff0d8a36a75c2d5ed80100fb660405180806020018281038252600d8152602001807f48656c6c6f2c20776f726c64210000000000000000000000000000000000000081525060200191505060405180910390a160cf806100c76000396000f3fe6080604052348015600f57600080fd5b506004361060285760003560e01c80638da5cb5b14602d575b600080fd5b60336075565b604051808273ffffffffffffffffffffffffffffffffffffffff1673ffffffffffffffffffffffffffffffffffffffff16815260200191505060405180910390f35b6000809054906101000a900473ffffffffffffffffffffffffffffffffffffffff168156fea265627a7a72315820fae816ad954005c42bea7bc7cb5b19f7fd5d3a250715ca2023275c9ca7ce644064736f6c634300050f003278a04cab43609092a99cf095d458b61b47189d1bbab64baed10a0fd7b7d2de2eb960a011ab1bcda76dfed5e733219beb83789f9887b2a7b2e61759c7c90f7d40403201&quot;</span>).unwrap();

        <span class="macro">assert!</span>(EthereumSignedTransaction::from_bytes(bytes.as_slice()).is_ok());
    }

    <span class="attribute">#[test]
    </span><span class="kw">fn </span>legacy_transaction() {
        <span class="kw">let </span>tx = EthereumSignedTransaction(TransactionV2::Legacy(LegacyTransaction {
			nonce: <span class="number">12_u64</span>.into(),
			gas_price: <span class="number">20_000_000_000_u64</span>.into(),
			gas_limit: <span class="number">21000_u64</span>.into(),
			action: TransactionAction::Call(
				H160::from_slice(hex::decode(<span class="string">&quot;727fc6a68321b754475c668a6abfb6e9e71c169a&quot;</span>).unwrap().as_slice()),
			),
			value: (<span class="number">10_u128 </span>* <span class="number">1_000_000_000_u128 </span>* <span class="number">1_000_000_000_u128</span>).into(),
			input: hex::decode(<span class="string">&quot;a9059cbb000000000213ed0f886efd100b67c7e4ec0a85a7d20dc971600000000000000000000015af1d78b58c4000&quot;</span>).unwrap(),
			signature: TransactionSignature::new(<span class="number">38</span>, H256::from_slice(hex::decode(<span class="string">&quot;be67e0a07db67da8d446f76add590e54b6e92cb6b8f9835aeb67540579a27717&quot;</span>).unwrap().as_slice()),  H256::from_slice(hex::decode(<span class="string">&quot;2d690516512020171c1ec870f6ff45398cc8609250326be89915fb538e7bd718&quot;</span>).unwrap().as_slice())).unwrap(),
		}));

        <span class="macro">assert_eq!</span>(
            rlp::decode::&lt;EthereumSignedTransaction&gt;(<span class="kw-2">&amp;</span>rlp::encode(<span class="kw-2">&amp;</span>tx)).unwrap(),
            tx,
        );
    }

    <span class="attribute">#[test]
    </span><span class="kw">fn </span>eip2930_transaction() {
        <span class="kw">let </span>tx =
            EthereumSignedTransaction(TransactionV2::EIP2930(EIP2930Transaction {
                chain_id: <span class="number">5</span>,
                nonce: <span class="number">7_u64</span>.into(),
                gas_price: <span class="number">30_000_000_000_u64</span>.into(),
                gas_limit: <span class="number">5_748_100_u64</span>.into(),
                action: TransactionAction::Call(H160::from_slice(
                    hex::decode(<span class="string">&quot;811a752c8cd697e3cb27279c330ed1ada745a8d7&quot;</span>)
                        .unwrap()
                        .as_slice(),
                )),
                value: (<span class="number">2_u128 </span>* <span class="number">1_000_000_000_u128 </span>* <span class="number">1_000_000_000_u128</span>).into(),
                input: hex::decode(<span class="string">&quot;6ebaf477f83e051589c1188bcc6ddccd&quot;</span>).unwrap(),
                access_list: <span class="macro">vec!</span>[
                    AccessListItem {
                        address: H160::from_slice(
                            hex::decode(<span class="string">&quot;de0b295669a9fd93d5f28d9ec85e40f4cb697bae&quot;</span>)
                                .unwrap()
                                .as_slice(),
                        ),
                        storage_keys: <span class="macro">vec!</span>[
                        H256::from_slice(hex::decode(
                            <span class="string">&quot;0000000000000000000000000000000000000000000000000000000000000003&quot;</span>,
                        ).unwrap().as_slice()),
                        H256::from_slice(hex::decode(
                            <span class="string">&quot;0000000000000000000000000000000000000000000000000000000000000007&quot;</span>,
                        )
                        .unwrap().as_slice()),
                    ],
                    },
                    AccessListItem {
                        address: H160::from_slice(
                            hex::decode(<span class="string">&quot;bb9bc244d798123fde783fcc1c72d3bb8c189413&quot;</span>)
                                .unwrap()
                                .as_slice(),
                        ),
                        storage_keys: <span class="macro">vec!</span>[],
                    },
                ],
                odd_y_parity: <span class="bool-val">false</span>,
                r: H256::from_slice(
                    hex::decode(<span class="string">&quot;36b241b061a36a32ab7fe86c7aa9eb592dd59018cd0443adc0903590c16b02b0&quot;</span>)
                        .unwrap()
                        .as_slice(),
                ),
                s: H256::from_slice(
                    hex::decode(<span class="string">&quot;5edcc541b4741c5cc6dd347c5ed9577ef293a62787b4510465fadbfe39ee4094&quot;</span>)
                        .unwrap()
                        .as_slice(),
                ),
            }));

        <span class="macro">assert_eq!</span>(
            rlp::decode::&lt;EthereumSignedTransaction&gt;(<span class="kw-2">&amp;</span>rlp::encode(<span class="kw-2">&amp;</span>tx)).unwrap(),
            tx,
        );
    }

    <span class="attribute">#[test]
    </span><span class="kw">fn </span>eip1559_transaction() {
        <span class="kw">let </span>tx = EthereumSignedTransaction(TransactionV2::EIP1559(EIP1559Transaction {
            chain_id: <span class="number">5</span>,
            nonce: <span class="number">7_u64</span>.into(),
            max_priority_fee_per_gas: <span class="number">10_000_000_000_u64</span>.into(),
            max_fee_per_gas: <span class="number">30_000_000_000_u64</span>.into(),
            gas_limit: <span class="number">5_748_100_u64</span>.into(),
            action: TransactionAction::Call(H160::from_slice(
                hex::decode(<span class="string">&quot;811a752c8cd697e3cb27279c330ed1ada745a8d7&quot;</span>)
                    .unwrap()
                    .as_slice(),
            )),
            value: (<span class="number">2_u128 </span>* <span class="number">1_000_000_000_u128 </span>* <span class="number">1_000_000_000_u128</span>).into(),
            input: hex::decode(<span class="string">&quot;6ebaf477f83e051589c1188bcc6ddccd&quot;</span>).unwrap(),
            access_list: <span class="macro">vec!</span>[
                AccessListItem {
                    address: H160::from_slice(
                        hex::decode(<span class="string">&quot;de0b295669a9fd93d5f28d9ec85e40f4cb697bae&quot;</span>)
                            .unwrap()
                            .as_slice(),
                    ),
                    storage_keys: <span class="macro">vec!</span>[
                        H256::from_slice(
                            hex::decode(
                                <span class="string">&quot;0000000000000000000000000000000000000000000000000000000000000003&quot;</span>,
                            )
                            .unwrap()
                            .as_slice(),
                        ),
                        H256::from_slice(
                            hex::decode(
                                <span class="string">&quot;0000000000000000000000000000000000000000000000000000000000000007&quot;</span>,
                            )
                            .unwrap()
                            .as_slice(),
                        ),
                    ],
                },
                AccessListItem {
                    address: H160::from_slice(
                        hex::decode(<span class="string">&quot;bb9bc244d798123fde783fcc1c72d3bb8c189413&quot;</span>)
                            .unwrap()
                            .as_slice(),
                    ),
                    storage_keys: <span class="macro">vec!</span>[],
                },
            ],
            odd_y_parity: <span class="bool-val">false</span>,
            r: H256::from_slice(
                hex::decode(<span class="string">&quot;36b241b061a36a32ab7fe86c7aa9eb592dd59018cd0443adc0903590c16b02b0&quot;</span>)
                    .unwrap()
                    .as_slice(),
            ),
            s: H256::from_slice(
                hex::decode(<span class="string">&quot;5edcc541b4741c5cc6dd347c5ed9577ef293a62787b4510465fadbfe39ee4094&quot;</span>)
                    .unwrap()
                    .as_slice(),
            ),
        }));

        <span class="macro">assert_eq!</span>(
            rlp::decode::&lt;EthereumSignedTransaction&gt;(<span class="kw-2">&amp;</span>rlp::encode(<span class="kw-2">&amp;</span>tx)).unwrap(),
            tx,
        );
    }

    <span class="attribute">#[test]
    </span><span class="kw">fn </span>test_transaction_signature_is_recoverable() {
        <span class="kw">let </span>keypair = generate_keypair();
        <span class="kw">let </span>unsigned_tx =
            <span class="kw">crate</span>::transaction::EthereumUnsignedTransaction::Legacy(LegacyTransactionMessage {
                nonce: U256::zero(),
                gas_price: U256::zero(),
                gas_limit: U256::zero(),
                action: ethereum::TransactionAction::Create,
                value: U256::zero(),
                input: Vec::new(),
                chain_id: <span class="prelude-val">Some</span>(TEST_CHAIN_ID),
            });
        <span class="kw">let </span>tx_hash = unsigned_tx.hash();
        <span class="kw">let </span>secret = Secret::from_slice(<span class="kw-2">&amp;</span>keypair.secret_bytes()).unwrap();
        <span class="kw">let </span>signature = sign_data_hash(<span class="kw-2">&amp;</span>tx_hash, <span class="kw-2">&amp;</span>secret).unwrap();

        <span class="kw">let </span>msg = Message::from_slice(tx_hash.as_fixed_bytes()).unwrap();
        <span class="kw">let </span>pubkey = PublicKey::from_secret_key_global(secret.seckey());

        <span class="macro">assert_eq!</span>(signature.recover(<span class="kw-2">&amp;</span>msg), <span class="prelude-val">Ok</span>(pubkey))
    }

    <span class="attribute">#[test]
    </span><span class="kw">fn </span>test_legacy_transaction_signature() {
        <span class="comment">// This test takes values found at https://eips.ethereum.org/EIPS/eip-155#example
        </span><span class="kw">let </span>unsigned_tx =
            <span class="kw">crate</span>::transaction::EthereumUnsignedTransaction::Legacy(LegacyTransactionMessage {
                nonce: U256::from(<span class="number">9_u64</span>),
                gas_price: U256::from(<span class="number">20_u64 </span>* <span class="number">10_u64</span>.pow(<span class="number">9</span>)),
                gas_limit: U256::from(<span class="number">21_000_u64</span>),
                action: ethereum::TransactionAction::Call(
                    Address::from_str(<span class="string">&quot;0x3535353535353535353535353535353535353535&quot;</span>).unwrap(),
                ),
                value: U256::from(<span class="number">10u64</span>.pow(<span class="number">18</span>)),
                input: Vec::new(),
                chain_id: <span class="prelude-val">Some</span>(TEST_CHAIN_ID),
            });

        <span class="comment">// test signing hash
        </span><span class="kw">let </span>tx_hash = unsigned_tx.hash();
        <span class="macro">assert_eq!</span>(
            <span class="macro">format!</span>(<span class="string">&quot;{:x}&quot;</span>, tx_hash),
            <span class="string">&quot;daf5a779ae972f972197303d7b574746c7ef83eadac0f2791ad23db92e4c8e53&quot;
        </span>);

        <span class="comment">// given a secret key
        </span><span class="kw">let </span>secret = Secret::from_slice(<span class="kw-2">&amp;</span>[<span class="number">0x46</span>; <span class="number">32</span>]).unwrap();

        <span class="comment">// test signed transaction
        </span><span class="kw">let </span>signed = unsigned_tx.sign(<span class="kw-2">&amp;</span>secret).unwrap();
        <span class="macro">assert_eq!</span>(
            hex::encode(signed.to_bytes().as_slice()),
            <span class="string">&quot;f86c098504a817c800825208943535353535353535353535353535353535353535880de0b6b3a76400008025a028ef61340bd939bc2195fe537567866003e1a15d3c71ff63e1590620aa636276a067cbe9d8997f761aecb703304b3800ccf555c9f3dc64214b297fb1966a3b6d83&quot;
        </span>);
    }

    <span class="attribute">#[test]
    </span><span class="kw">fn </span>test_recovery_of_legacy_signed_transaction() {
        <span class="kw">let </span>raw_signed_tx = <span class="string">&quot;f86c098504a817c800825208943535353535353535353535353535353535353535880de0b6b3a76400008025a028ef61340bd939bc2195fe537567866003e1a15d3c71ff63e1590620aa636276a067cbe9d8997f761aecb703304b3800ccf555c9f3dc64214b297fb1966a3b6d83&quot;</span>;
        <span class="kw">let </span>signed =
            EthereumSignedTransaction::from_bytes(<span class="kw-2">&amp;</span>hex::decode(raw_signed_tx).unwrap()).unwrap();
        <span class="comment">// given the signing secret key&#39;s address
        </span><span class="kw">let </span>caller = Address::from_str(<span class="string">&quot;0x9d8a62f656a8d1615c1294fd71e9cfb3e4855a4f&quot;</span>).unwrap();
        <span class="macro">assert_eq!</span>(signed.recover().unwrap(), caller);
    }

    <span class="attribute">#[test]
    </span><span class="kw">fn </span>test_decoding_rlp_legacy_signed_transaction() {
        <span class="kw">let </span>raw_signed_tx = <span class="string">&quot;f86c098504a817c800825208943535353535353535353535353535353535353535880de0b6b3a76400008025a028ef61340bd939bc2195fe537567866003e1a15d3c71ff63e1590620aa636276a067cbe9d8997f761aecb703304b3800ccf555c9f3dc64214b297fb1966a3b6d83&quot;</span>;
        <span class="kw">let </span>signed =
            EthereumSignedTransaction::from_bytes(<span class="kw-2">&amp;</span>hex::decode(raw_signed_tx).unwrap()).unwrap();
        <span class="macro">assert_eq!</span>(
            hex::encode(signed.to_bytes().as_slice()),
            <span class="string">&quot;f86c098504a817c800825208943535353535353535353535353535353535353535880de0b6b3a76400008025a028ef61340bd939bc2195fe537567866003e1a15d3c71ff63e1590620aa636276a067cbe9d8997f761aecb703304b3800ccf555c9f3dc64214b297fb1966a3b6d83&quot;
        </span>);
    }

    <span class="attribute">#[test]
    </span><span class="kw">fn </span>account_secret_has_valid_address() {
        <span class="comment">// example taken from `test_legacy_transaction_signature` secret
        //address: &quot;0x9d8a62f656a8d1615c1294fd71e9cfb3e4855a4f&quot;,
        //privateKey: &quot;0x4646464646464646464646464646464646464646464646464646464646464646&quot;,
        </span><span class="kw">let </span>secret = Secret::from_slice(<span class="kw-2">&amp;</span>[<span class="number">0x46</span>; <span class="number">32</span>]).unwrap();
        <span class="macro">assert_eq!</span>(
            secret.address(),
            Address::from_str(<span class="string">&quot;0x9d8a62f656a8d1615c1294fd71e9cfb3e4855a4f&quot;</span>).unwrap()
        );
        <span class="comment">// example taken from https://web3js.readthedocs.io/en/v1.7.3/web3-eth-accounts.html#example
        //address: &quot;0xb8CE9ab6943e0eCED004cDe8e3bBed6568B2Fa01&quot;,
        //privateKey: &quot;0x348ce564d427a3311b6536bbcff9390d69395b06ed6c486954e971d960fe8709&quot;,
        </span><span class="kw">let </span><span class="kw-2">mut </span>secret_bytes = [<span class="number">0u8</span>; <span class="number">32</span>];
        hex::decode_to_slice(
            <span class="string">&quot;348ce564d427a3311b6536bbcff9390d69395b06ed6c486954e971d960fe8709&quot;</span>,
            <span class="kw-2">&amp;mut </span>secret_bytes,
        )
        .unwrap();
        <span class="kw">let </span>secret = Secret::from_slice(<span class="kw-2">&amp;</span>secret_bytes).unwrap();
        <span class="macro">assert_eq!</span>(
            secret.address(),
            Address::from_str(<span class="string">&quot;b8CE9ab6943e0eCED004cDe8e3bBed6568B2Fa01&quot;</span>).unwrap()
        )
    }
}
</code></pre></div>
</section></div></main><div id="rustdoc-vars" data-root-path="../../" data-current-crate="chain_evm" data-themes="ayu,dark,light" data-resource-suffix="" data-rustdoc-version="1.65.0 (897e37553 2022-11-02)" ></div></body></html>